:020000040000fa
:080000000002040000000000f2
:020000040000fa
:0400080022030000cf
:020000040000fa
:04000c0034030000b9
:020000040000fa
:040010004c0300009d
:020000040000fa
:040014002a030000bb
:020000040000fa
:040018003c030000a5
:020000040000fa
:04001c004403000099
:020000040000fa
:040020005403000085
:020000040000fa
:04002400680500006b
:020000040000fa
:040028006805000067
:020000040000fa
:04002c006805000063
:020000040000fa
:04003000680500005f
:020000040000fa
:040034003005000093
:020000040000fa
:040038006805000057
:020000040000fa
:04003c006805000053
:020000040000fa
:04004000680500004f
:020000040000fa
:04004400680500004b
:020000040000fa
:04004800ca030000e7
:020000040000fa
:04004c006805000043
:020000040000fa
:04005000680500003f
:020000040000fa
:04005400660400003e
:020000040000fa
:04005800020400009e
:020000040000fa
:04005c006805000033
:020000040000fa
:04006000680500002f
:020000040000fa
:04006400680500002b
:020000040000fa
:04006800100500007f
:020000040000fa
:04006c00f00400009c
:020000040000fa
:04007000680500001f
:020000040000fa
:0400740098030000ed
:020000040000fa
:040078006805000017
:020000040000fa
:04007c006805000013
:020000040000fa
:04008000680500000f
:020000040000fa
:04008400680500000b
:020000040000fa
:040088006805000007
:020000040000fa
:04008c006805000003
:020000040000fa
:0400900068050000ff
:020000040000fa
:0400940068050000fb
:020000040000fa
:0400980068050000f7
:020000040000fa
:04009c0068050000f3
:020000040000fa
:0400a00068050000ef
:020000040000fa
:0400a40068050000eb
:020000040000fa
:0400a80068050000e7
:020000040000fa
:0400ac0068050000e3
:020000040000fa
:0400b00068050000df
:020000040000fa
:0400b40068050000db
:020000040000fa
:0400b80068050000d7
:020000040000fa
:0400bc0068050000d3
:020000040000fa
:0400c00068050000cf
:020000040000fa
:0400c40068050000cb
:020000040000fa
:0400c80068050000c7
:020000040000fa
:0400cc0068050000c3
:020000040000fa
:0400d00068050000bf
:020000040000fa
:0400d40068050000bb
:020000040000fa
:0400d80068050000b7
:020000040000fa
:0400dc0068050000b3
:020000040000fa
:0400e00068050000af
:020000040000fa
:0400e40068050000ab
:020000040000fa
:0400e80068050000a7
:020000040000fa
:0400ec0068050000a3
:020000040000fa
:0400f000680500009f
:020000040000fa
:0400f400680500009b
:020000040000fa
:0400f8006805000097
:020000040000fa
:0400fc006805000093
:020000040000fa
:04010000680500008e
:020000040000fa
:04010400680500008a
:020000040000fa
:040108006805000086
:020000040000fa
:04010c006805000082
:020000040000fa
:04011000680500007e
:020000040000fa
:04011400680500007a
:020000040000fa
:040118006805000076
:020000040000fa
:04011c006805000072
:020000040000fa
:04012000680500006e
:020000040000fa
:04012400680500006a
:020000040000fa
:040128006805000066
:020000040000fa
:04012c00d6040000f5
:020000040000fa
:04013000680500005e
:020000040000fa
:04013400680500005a
:020000040000fa
:040138006805000056
:020000040000fa
:04013c006805000052
:020000040000fa
:04014000680500004e
:020000040000fa
:04014400680500004a
:020000040000fa
:040148006805000046
:020000040000fa
:04014c006805000042
:020000040000fa
:04015000680500003e
:020000040000fa
:04015400680500003a
:020000040000fa
:040158006805000036
:020000040000fa
:04015c006805000032
:020000040000fa
:04016000680500002e
:020000040000fa
:04016400680500002a
:020000040000fa
:040168006805000026
:020000040000fa
:04016c006805000022
:020000040000fa
:04017000680500001e
:020000040000fa
:04017400680500001a
:020000040000fa
:040178006805000016
:020000040000fa
:04017c006805000012
:020000040000fa
:04018000680500000e
:020000040000fa
:04018400680500000a
:020000040000fa
:040188006805000006
:020000040000fa
:04018c006805000002
:020000040000fa
:0401900068050000fe
:020000040000fa
:0401940068050000fa
:020000040000fa
:0401980068050000f6
:020000040000fa
:04019c0068050000f2
:020000040000fa
:0401a00068050000ee
:020000040000fa
:0401a40068050000ea
:020000040000fa
:0401a80068050000e6
:020000040000fa
:0401ac0068050000e2
:020000040000fa
:0401b00068050000de
:020000040000fa
:0401b40068050000da
:020000040000fa
:0401b80068050000d6
:020000040000fa
:0401bc0068050000d2
:020000040000fa
:0401c00068050000ce
:020000040000fa
:0401c40068050000ca
:020000040000fa
:0401c80068050000c6
:020000040000fa
:0401cc0068050000c2
:020000040000fa
:0401d00068050000be
:020000040000fa
:0401d40068050000ba
:020000040000fa
:0401d80068050000b6
:020000040000fa
:0401dc0068050000b2
:020000040000fa
:0401e00068050000ae
:020000040000fa
:0401e40068050000aa
:020000040000fa
:0401e80068050000a6
:020000040000fa
:0401ec0068050000a2
:020000040000fa
:0401f000680500009e
:020000040000fa
:0401f400680500009a
:020000040000fa
:0401f8006805000096
:020000040000fa
:0401fc006805000092
:020000040000fa
:04020000680500008d
:020000040000fa
:040204006805000089
:020000040000fa
:040208006805000085
:020000040000fa
:04020c006805000081
:020000040000fa
:04021000680500007d
:020000040000fa
:040214006805000079
:020000040000fa
:040218006805000075
:020000040000fa
:04021c006805000071
:020000040000fa
:04022000680500006d
:020000040000fa
:040224006805000069
:020000040000fa
:040228006805000065
:020000040000fa
:04022c006805000061
:020000040000fa
:04023000680500005d
:020000040000fa
:040234006805000059
:020000040000fa
:040238006805000055
:020000040000fa
:04023c006805000051
:020000040000fa
:04024000680500004d
:020000040000fa
:040244006805000049
:020000040000fa
:040248006805000045
:020000040000fa
:04024c006805000041
:020000040000fa
:04025000680500003d
:020000040000fa
:040254006805000039
:020000040000fa
:040258006805000035
:020000040000fa
:04025c006805000031
:020000040000fa
:04026000680500002d
:020000040000fa
:040264006805000029
:020000040000fa
:040268006805000025
:020000040000fa
:04026c006805000021
:020000040000fa
:04027000680500001d
:020000040000fa
:040274006805000019
:020000040000fa
:040278006805000015
:020000040000fa
:04027c006805000011
:020000040000fa
:04028000680500000d
:020000040000fa
:040284006805000009
:020000040000fa
:040288006805000005
:020000040000fa
:04028c006805000001
:020000040000fa
:0402900068050000fd
:020000040000fa
:0402940068050000f9
:020000040000fa
:0402980068050000f5
:020000040000fa
:04029c0068050000f1
:020000040000fa
:0402a00068050000ed
:020000040000fa
:0402a40068050000e9
:020000040000fa
:0402a80068050000e5
:020000040000fa
:0402ac0068050000e1
:020000040000fa
:0402b00068050000dd
:020000040000fa
:0402b40068050000d9
:020000040000fa
:0402b80068050000d5
:020000040000fa
:0402bc0068050000d1
:020000040000fa
:0402c00068050000cd
:020000040000fa
:0402c40068050000c9
:020000040000fa
:0402c80068050000c5
:020000040000fa
:0402cc0068050000c1
:020000040000fa
:0402d00068050000bd
:020000040000fa
:0402d40068050000b9
:020000040000fa
:0402d80068050000b5
:020000040000fa
:0402dc0068050000b1
:020000040000fa
:0402e00068050000ad
:020000040000fa
:0402e40068050000a9
:020000040000fa
:0402e80068050000a5
:020000040000fa
:0402ec0068050000a1
:020000040000fa
:0402f000680500009d
:020000040000fa
:0402f4006805000099
:020000040000fa
:0402f8006805000095
:020000040000fa
:0402fc006805000091
:020000040000fa
:04030000680500008c
:020000040000fa
:040304006805000088
:020000040000fa
:040308006805000084
:020000040000fa
:04030c006805000080
:020000040000fa
:04031000680500007c
:020000040000fa
:10040000cf2021000eff24000e0188000000000014
:10041000000020000000e000020032000001200087
:100420002002880014000700b90107000000e00066
:1004300003003a0040c621000100200002003700fe
:100440000000200001002000810f70000100320038
:100450000f000700000020000000e0000200320052
:100460000000020000000000e4090200000000009b
:100470000040da000000fe00002020000000e00044
:1004800002003200002020009001880000000600d9
:10049000a1028800800478000000eb001f003700f4
:1004a000e284440054a0b4009905ba00e2844400f8
:1004b00054a0b4009906ba00e284440054a0b400e9
:1004c0000006eb00476fde00fd07b200ae018800ba
:1004d000636ce10003003a000ad801000000eb0061
:1004e0000e003700606ce10008003a00004deb00a0
:1004f0000a05e800020039003420ec000af0a000f0
:100500008b05e900f9ff3e00040037006168e10057
:10051000010032000086eb000b00070019c7ba008b
:100520000e04e0001905ba0003003a000a00e000da
:10053000dbff3a0000000600fe07b200ae028800b2
:100540008a047800f5ff37000cd0a300e20f4d00bd
:100550001c003b0089027800354dba000a05e8000e
:10056000020039003420ec000af0a0008b05e900fd
:100570000f003200254dba000a05e80002003900dc
:100580003420ec000af0a0008b05e90008003200de
:100590000c00e0000600320015cdba000a05e800a4
:1005a000020039003420ec000af0a0008b05e900bd
:1005b0008984e80054a0b4000b00e000e2ff3a0098
:1005c000000006009902ba00055d78008b05e9007d
:1005d000f7ff3200c82ade00055d78008b05e900d0
:1005e000f3ff32000c00e000f1ff320019ddba0029
:1005f000eeff3700841f040000000000fa1b040017
:1006000000000000d21f040000000000a00d040044
:1006100000000000c20d040000000000ae1e040037
:10062000000000004015040000000000a8090400bc
:1006300000000000b609040000000000be0904002c
:10064000000000003600f800c028a9000000eb0000
:100650001b0f07003600f8001d0f0700c048a90057
:1006600010002000160f07003600f800c068a9002f
:1006700020002000120f07003600f800c088a900f3
:10068000300020000e0f07003600f800c0a8a900b7
:10069000400020000a0f07003600f800c608a90035
:1006a00070002000060f07003600f800204680008a
:1006b0004800de00614060000004e00003003200fa
:1006c000c508a900c0002000fd0e070020468000dc
:1006d0004f00de00004078000004e000030032001c
:1006e000c5e8a90080002000f50e07002046800024
:1006f0004500de00614060000004e00003003200bd
:10070000c4a8a90090002000ed0e0700204680003c
:100710004400de00614060000004e000030032009d
:10072000c488a900a0002000e50e0700ffff3700e5
:100730003600f800809fbe00829fbe00849fbe00ee
:10074000869fbe000000fa00104080004300de00db
:1007500061406000e14f500006003a008081800057
:100760000000e000020032008081800000000100f3
:100770000268a900000000000080fa004f03be00dc
:100780004f02be004f01be004f00be003600f90010
:10079000004006003600f800809fbe00829fbe0029
:1007a000849fbe00869fbe000000fa0090818000fa
:1007b0000000e00002003200908180000000010093
:1007c00080202100104090008040e800802021001f
:1007d000114098008020210011c0b300014878002a
:1007e0000108a900000000000080fa004f03be00cd
:1007f0004f02be004f01be004f00be003600f900a0
:10080000004006003600f800809fbe00829fbe00b8
:10081000849fbe00869fbe000000fa00e08080003a
:100820000000e00002003200e080800000000100d3
:10083000c1808000b0808000808f500002003a00ac
:100840002188a900190037000188a900100037008d
:10085000c08080008000e800c180880010407800df
:100860000080fb0020118800c1808000f01f210063
:10087000808f500002003a00601f2100c080880075
:10088000c1808000b0808000808f50000600320060
:10089000101180004900de0061406000e14f50000f
:1008a000ebff3a00010037000000000000000000ec
:1008b0000080fa004f03be004f02be004f01be0091
:1008c0004f00be003600f900004006003600f80078
:1008d000809fbe00829fbe00849fbe00869fbe0098
:1008e0000000fa00f08080000000e000020032000a
:1008f000f0808000000001000168a9001e003700a0
:10090000311180009080800081407800014878009b
:100910009180800070202100808f500009003200fb
:10092000908080008000e800a0808000808f5000d0
:1009300004003200908080000000e8009080880071
:100940000d0037009180800070202100808f5000c2
:1009500007003a00a1808000f01f2100808f500026
:1009600003003200f01f2100908088000200370051
:1009700010c0b3001af0b7001011800000407800da
:1009800061406000e14f5000ddff320000000000d8
:100990000080fa004f03be004f02be004f01be00b0
:1009a0004f00be003600f90000400600801f7800ae
:1009b0000000fa00101180000000d10061406000ca
:1009c000e14f500001003a002222a9000828a900a6
:1009d000000000000080fa004f0078000040060090
:1009e0003600f800809fbe00829fbe00849fbe003c
:1009f000869fbe000000fa005081800000000100c8
:100a0000000000000080fa004f03be004f02be004d
:100a10004f01be004f00be003600f9000040060046
:100a20003600f800809fbe00829fbe00849fbe00fb
:100a3000869fbe000000fa00608180000000010077
:100a4000000000000080fa004f03be004f02be000d
:100a50004f01be004f00be003600f9000040060006
:100a60003600f800809fbe00829fbe00849fbe00bb
:100a7000869fbe000000fa00b08180000000e00008
:100a800002003200b081800000000100a02021009f
:100a9000104090008040e800a02021001140980004
:100aa000a020210011c0b300014878000068a9000f
:100ab000000000000080fa004f03be004f02be009d
:100ac0004f01be004f00be003600f9000040060096
:100ad0000040da000000fe00f03fb1000180b100ec
:100ae00006003500ee03090000000000403fb100a1
:100af0000180b100fbff3d001000b000203fb000be
:100b0000020035000080090000000000000006001f
:100b1000000005006022b800060220000000d0009e
:100b20008180d2000482d2008582d2000000a00021
:100b30000202520083825a00030031000202420086
:100b400083824a000000a1000603e900f3ff3a0097
:100b500000000600800078000108a3000f003a00a2
:100b600001027800b4017800f2ef2f000301410088
:100b70008381ea000301610003082800030161008a
:100b80000200e0000c003200010178003204e000b5
:100b90000500320082007800fbff37000101780079
:100ba0003204e00002003a0000805000000006001d
:100bb00082007800e8ff370084007800e8ff370003
:020000040000fa
:100bc00000000000c1c0000081c100004001000021
:100bd00001c30000c00300008002000041c2000009
:100be00001c60000c00600008007000041c70000e9
:100bf00000050000c1c5000081c4000040040000e1
:100c000001cc0000c00c0000800d000041cd0000b0
:100c1000000f0000c1cf000081ce0000400e000098
:100c2000000a0000c1ca000081cb0000400b000098
:100c300001c90000c00900008008000041c8000090
:100c400001d80000c01800008019000041d9000040
:100c5000001b0000c1db000081da0000401a000028
:100c6000001e0000c1de000081df0000401f000008
:100c700001dd0000c01d0000801c000041dc000000
:100c800000140000c1d4000081d500004015000010
:100c900001d70000c01700008016000041d60000f8
:100ca00001d20000c01200008013000041d30000f8
:100cb00000110000c1d1000081d0000040100000f0
:100cc00001f00000c03000008031000041f1000060
:100cd00000330000c1f3000081f200004032000048
:100ce00000360000c1f6000081f700004037000028
:100cf00001f50000c03500008034000041f4000020
:100d0000003c0000c1fc000081fd0000403d0000ef
:100d100001ff0000c03f0000803e000041fe0000d7
:100d200001fa0000c03a0000803b000041fb0000d7
:100d300000390000c1f9000081f8000040380000cf
:100d400000280000c1e8000081e9000040290000ff
:100d500001eb0000c02b0000802a000041ea0000e7
:100d600001ee0000c02e0000802f000041ef0000c7
:100d7000002d0000c1ed000081ec0000402c0000bf
:100d800001e40000c02400008025000041e50000cf
:100d900000270000c1e7000081e6000040260000b7
:100da00000220000c1e2000081e3000040230000b7
:100db00001e10000c02100008020000041e00000af
:100dc00001a00000c06000008061000041a100009f
:100dd00000630000c1a3000081a200004062000087
:100de00000660000c1a6000081a700004067000067
:100df00001a50000c06500008064000041a400005f
:100e0000006c0000c1ac000081ad0000406d00002e
:100e100001af0000c06f0000806e000041ae000016
:100e200001aa0000c06a0000806b000041ab000016
:100e300000690000c1a9000081a80000406800000e
:100e400000780000c1b8000081b9000040790000be
:100e500001bb0000c07b0000807a000041ba0000a6
:100e600001be0000c07e0000807f000041bf000086
:100e7000007d0000c1bd000081bc0000407c00007e
:100e800001b40000c07400008075000041b500008e
:100e900000770000c1b7000081b600004076000076
:100ea00000720000c1b2000081b300004073000076
:100eb00001b10000c07100008070000041b000006e
:100ec00000500000c19000008191000040510000de
:100ed00001930000c05300008052000041920000c6
:100ee00001960000c05600008057000041970000a6
:100ef00000550000c195000081940000405400009e
:100f0000019c0000c05c0000805d0000419d00006d
:100f1000005f0000c19f0000819e0000405e000055
:100f2000005a0000c19a0000819b0000405b000055
:100f300001990000c059000080580000419800004d
:100f400001880000c048000080490000418900007d
:100f5000004b0000c18b0000818a0000404a000065
:100f6000004e0000c18e0000818f0000404f000045
:100f7000018d0000c04d0000804c0000418c00003d
:100f800000440000c184000081850000404500004d
:100f900001870000c0470000804600004186000035
:100fa00001820000c0420000804300004183000035
:100fb00000410000c181000081800000404000002d
:020000040000fa
:100fc0000200fa00000f78001e007800e10f5000c8
:100fd0000c0032001e0078000000e0000700320024
:100fe0001e007800e20f5000080032001e0078005a
:100ff000e30f5000070032000800370001eba800a3
:101000000600370011eba8000400370021eba80010
:101010000200370031eba8000000000000000000d3
:101020000080fa00000006000400fa00000f7800bb
:10103000110798001e007800e10f50000e003200ea
:101040001e0078000000e000070032001e0078005b
:10105000e20f50000c0032001e007800e30f500039
:101060000d003200100037009e00900021588800cb
:10107000062bef000c0037009e009000a15888005e
:10108000162bef00080037009e00900021598800c1
:10109000262bef00040037009e009000a159880025
:1010a000362bef0000000000000000000080fa0076
:1010b000000006000400fa00000f780011079800f5
:1010c0001e007800e10f50000d0032001e00780075
:1010d0000000e000070032001e007800e20f500020
:1010e0000a0032001e007800e30f50000a003200b0
:1010f0000c0037009e0090006158880009003700fe
:101100009e009000e1588800060037009e00900085
:1011100061598800030037009e009000e159880063
:1011200000000000000000000080fa00000006003f
:101130000000fa000060fe00000000000080fa00dd
:10114000000006000800fa00e013210020079800c4
:1011500019eea800003d2000010020005efe0700ff
:1011600019eea9000040eb00004f7800390037006d
:101170000040eb00204798001e80fb006114210016
:1011800000804000904078006147980000c8b3009c
:10119000304798000040eb001047980020003700cf
:1011a00019cea800ee4090003e40900000c06000c4
:1011b0000004e0000200320019aea8000100370070
:1011c00019aea900100d20000100200042fe07000a
:1011d000630047001080fb000000d10030479800fa
:1011e0002e409000004040002047980019cea900f2
:1011f000b07080004c00de0061406000ae409000a6
:1012000000c0700020479800100d20000100200051
:1012100031fe07001e4090000040e8001047980093
:101220001e409000e74f5000ddff3600ae009000fa
:10123000640047000108e8001001780022079800c8
:101240002e419000824878001e4078000040e8005f
:10125000004f78001e407800e74f5000c4ff360072
:1012600019aea900000000000080fa00000006008e
:101270000200fa00ce050700104798001e409000bb
:10128000ef4f500002003e000040eb002e00370000
:101290000040eb00004f7800100037001e80fb007c
:1012a000e3004000e014210001004000904078007d
:1012b0001e80fb00a21321000000410010407800b6
:1012c00080cf5000020032000040eb001e003700cb
:1012d0001e4078000040e800004f78001e40780073
:1012e000e34f5000edff3600e0142100504890001d
:1012f000e84f5000020032000040eb0012003700bf
:101300000040eb00004f78000b0037009e80fb0090
:101310001e80fb00e2142100810041001141780091
:10132000e116210000804000024878001e4078004d
:101330000040e800004f78001e407800f74f500052
:10134000f2ff360010c0b3000080fa000000060073
:101350000000fa00184ea900960a07000f70ef006f
:10136000000000000080fa00000006000000fa0003
:10137000000000000080fa00000006000000fa00f3
:101380008c0a07000fd0bf000004e0000b00320001
:10139000b07080004900de00614060000004e000a1
:1013a00007003200184ea9000f70ef008080800007
:1013b0000000e80080808800010037000000000085
:1013c0000080fa00000006001a00fa00990b0700de
:1013d00000542100de01070001c2b300e014210027
:1013e00065050700809a2000600a0700710a07005f
:1013f000609b200003090700e09b2000c60a07004d
:1014000010002000eefe0700003020008000780071
:101410001000200027ff0700200021008000780036
:101420001000200000ff070080ccb300004f7800c0
:101430000d003700184ea80080092100110020007f
:10144000a5fd07001e4078000040e900004f78002d
:101450001e4078000004e00003003a0010c0b30012
:101460000ef0b70005003700b07080004900de00c4
:10147000614060000004e000eeff3200184ea90059
:101480000f70ef001030ef000040eb0010479800a5
:101490000040eb00104f98000040eb002047980000
:1014a0000040eb00304798000000eb003007980048
:1014b0000040eb00404798000900370064004700f7
:1014c0001080fb00e1162100008040008040eb000e
:1014d000014878004e4090000040e80040479800e6
:1014e0004e409000f74f5000f4ff36000040eb00f4
:1014f0004047980011003700640047001080fb004f
:1015000061142100808040000041eb008248780097
:10151000e40047009180fb006214210000004100bc
:1015200010417800e01321000100400002487800db
:101530004e4090000040e800404798004e40900028
:10154000e74f5000ecff36000040eb00204f9800c2
:101550000040eb00004f98000040eb00304f980037
:10156000f3fe07000000eb00200f9800e0162100ba
:10157000704890000042b200204f9800ae489000a2
:101580000e48900000c07000304f98003e48900018
:101590000004e000090032000ed0bf000004e000ab
:1015a00006003a000fd0bf000004e00003003a003c
:1015b00010c0b3000ff0b700184ea80010002000b4
:1015c00000808800108080008000eb002080880070
:1015d000318088000000eb003007980016003700cb
:1015e00023ff07000004e00018003a0080092100f2
:1015f0001100200038fd0700008080000000e80096
:1016000000808800108080008000eb002280800035
:1016100033808000000041008180490020808800e4
:101620003180880066004700e60047001108e800a6
:101630009000780031079800be009000f01820005c
:10164000808f5000e6ff36000100370000000000e8
:10165000db040700be009000f0182000808f5000cf
:10166000140036000040eb004047980009003700a6
:10167000640047001080fb00e1162100008040005c
:101680008040eb00014878004e4090000040e800a8
:10169000404798004e409000f74f5000f4ff36004e
:1016a0000040eb002047980010c0b300304798007e
:1016b0002b003700e01621002041900022479800bf
:1016c000e0162100b048900031479800e016210054
:1016d000e04890006014210001487800e0162100e5
:1016e000f04890006014210011409800e01621009d
:1016f000a05090006014210021409800e0162100c5
:10170000b05090006014210031409800e016210094
:10171000c05090006014210041409800e016210064
:10172000d0509000601421005140980060142100b6
:101730006007980062002000ee0090000000eb00bf
:10174000840a0700400f98009e5890006014210002
:10175000614098008e5890006014210071409800fc
:10176000008080000000e800008088001080800079
:101770008000eb0022808000338080000000410068
:101780008180490020808800318088006dfe07003c
:10179000008080000000e800008088001080800049
:1017a0008000eb0022808000338080000000410038
:1017b00081804900208088003180880060182100e5
:1017c000700798007e0090008040eb000148780090
:1017d0006e0047001000e80001cab300014878001d
:1017e0006e0047001080e8002e419000024878000b
:1017f0006e004700310020001080400080c0eb00e8
:10180000014878006e0047004200200010004100af
:10181000be40900001487800248080003580800020
:10182000008080008000eb000001be000400be00cc
:10183000b8fc070000017800010078008200780001
:1018400000017800107e22008091b900010078002c
:10185000e000b90000014100107e22000008b8003d
:1018600001014100820078004409dd004c00de00e7
:1018700000007100cc08de00000f98008e08900078
:10188000d0cc2c000008b8004308de00300f9800d0
:101890000e099000d0cc2c000010b8004308de00e8
:1018a000ea00b90000005100e40f500003003600c8
:1018b0003e0890000000e800300f98006e004700de
:1018c0005100200010804000fe5090000148780038
:1018d0006e0047006200200010004100ee509000b2
:1018e0000148780080808000300f98000ed0bf0043
:1018f0000004e000020032000080eb00300f98008e
:101900006e0047007100200010804000fe509000e3
:10191000014878006e00470082002000100041005e
:10192000ee509000014878006e00470092002000c1
:1019300090004100e01321001040780080487800ba
:10194000fe009000a0c0b30022040700e0162100b2
:10195000d050900021579800ae50900000c8b300be
:1019600080cf500019003600720047001080fb0045
:101970000008b1008000400080032100008040008a
:10198000100078008000eb005280800063808000af
:1019900000004100818049005080880061808800fb
:1019a000528080006380800000a020001101200090
:1019b000800f5100818f59000400340000a02000e6
:1019c0001101200050808800618088002e50900016
:1019d0000004e0001a00350052808000638080001f
:1019e000720047001080fb000108200000805000ba
:1019f000800040008003210000804000100078003b
:101a00008000eb0000005100818059005080880068
:101a100061808800528080006380800000602f0019
:101a2000e1fe2f00800f5100818f590004003d001e
:101a300000602f00e1fe2f00508088006180880048
:101a400050808000618080004809dd004800de0091
:101a50000000710080007800e098210000804000c4
:101a600030638800b07080004a00de006140600092
:101a7000e14f500003003a000040eb00104798008f
:101a80000200370010c0b300104798009e4090003d
:101a9000114f98002e499000024f9800b0fe370079
:101aa0000000fa002188a9002168a9008000200018
:101ab000001188002222ef006009200040118800f8
:101ac000601f2100c0808800601f2100b080880056
:101ad000f01f2100a0808800f01f21009080880066
:101ae0001a70ef0000da20000800070020dc200058
:101af000170007002168a80021e2a8002342a800df
:101b0000000000000080fa00000006000200fa0059
:101b1000000f78001e0078000000e00003003a008b
:101b200000da2000e0808800020037001e00780004
:101b3000e0808800000000000080fa00000006003d
:101b40000000fa00000000000080fa00000006001b
:101b50000200fa00000f78001e0078000000e0008c
:101b600003003a0020dc2000f080880002003700eb
:101b70001e007800f0808800000000000080fa005d
:101b8000000006000000fa00000000000080fa00db
:101b9000000006000200fa000040eb00004f780051
:101ba00000000000a180800090808000808f5000a5
:101bb000fcff3200a0808000104f7800a0808000e1
:101bc0000000e800a0808800a18080008020210023
:101bd000808f500002003a00f01f2100a080880092
:101be0001e4078000080fa00000006000200fa00a3
:101bf000004f7800000000001d00070061406800f1
:101c00000004e000fcff3a00b08080001e4878002d
:101c1000b08080000000e800b0808800b1808000c3
:101c2000f01f2100808f500002003a00601f210049
:101c3000b08088002188a800000000000080fa0021
:101c4000000006000000fa00a18080009080800063
:101c50000080680000f0a7000000ea000000ea0031
:101c60004f00de00004078000080fa00000006000f
:101c70000400fa00c180800011079800b080800045
:101c80009e009000808f5000060036009e0090005d
:101c9000b0808000008050000000e900000f780054
:101ca00008003700b0808000800078001e0090009f
:101cb000008050008000780080002000010050006b
:101cc000000f78001e00780000f0a7000000ea0076
:101cd0000000ea004f00de00004078000080fa00bb
:101ce000000006000000fa00b1808000c080800083
:101cf000808f500004003a00101180004800de0080
:101d000061406000010037000040eb000080fa00f5
:101d1000000006000400fa0091808000110798007e
:101d2000a08080009e009000808f5000090031004c
:101d3000a0808000800078001e009000008050008d
:101d4000800078009000200001005000000f780013
:101d5000040037009e009000a080800000805000aa
:101d6000000f7800f00f20009e007800808f500058
:101d70000200360000c0eb00020037001e007800b1
:101d8000004078000080fa00000006000400fa001d
:101d9000c180800011079800b08080009e009000f4
:101da000808f5000060036009e009000b0808000ba
:101db000008050000000e900000f780008003700a4
:101dc000b0808000800078001e00900000805000ed
:101dd000800078008000200001005000000f780093
:101de000f00f20009e007800808f50000200360027
:101df00000c0eb00020037001e00780000407800b1
:101e00000080fa00000006000800fa00881f780031
:101e10002007980031079800beff07000080fb00f4
:101e2000000f78003e0090009e0f5000020031002d
:101e3000e6004700110f78000000eb001007980043
:101e40000c0037002e049000640047000808e800ea
:101e500090007800210798004eff0700004c7800a2
:101e60000e80e8008e80e8001108e80090007800fd
:101e7000110798001e0090009e0f5000f1ff3900de
:101e80001e0078004f0478000080fa000000060071
:101e90000800fa002007980031079800bbff0700f0
:101ea0000080fb00000f78003e0090009e0f500065
:101eb00002003100e6004700110f78000000eb003f
:101ec000100798000c003700ae0090006400470037
:101ed0000108e800100178002207980011407800fe
:101ee00042ff07000e80e8008e80e8001108e8003d
:101ef00090007800110798001e0090009e0f50007f
:101f0000f1ff39001e0078000080fa000000060092
:101f10000400fa000000eb00000f78007dff0700ce
:101f20002047980099ff0700304798000e80e8008e
:101f30001080fb000000e00003003200e90f5000b9
:101f400005003200080037001e0078000020a000c5
:101f5000000f7800080037001e0078000000a00085
:101f6000000f7800040037001e0078000010a00069
:101f7000000f780000000000630047001080fb00a5
:101f80000000e00003003200e90f500005003200bd
:101f9000080037001e0078000030a000000f780015
:101fa000040037001e0078000040a000000f7800f9
:101fb000000000001e0078000080fa00000006000b
:101fc0000400fa0010079800a18080000e80e8004d
:101fd000108f40000200370071ff2f001e8f40005d
:101fe000802021009e007800808f5000faff3e0084
:101ff0001e007800104078000080fa000000060003
:102000000000fa0043ff07000070a7000040ea004c
:102010000040e9000080fb004700de00004078003f
:102020000080fa00000006000000fa0057ff0700d9
:102030000070a7000040ea000040e9000080fb00bb
:102040004700de00004078000080fa000000060033
:102050000000fa00101180000080fa000000060065
:102060000000fa0049ff07000004e00012003200ff
:10207000c1808000b0808000808f50000600360054
:10208000c080800080007800b08080000080500018
:102090000000e90009003700b0808000800078006f
:1020a000c080800000805000800078008000200008
:1020b00001005000010037000000eb000080fa0032
:1020c000000006000000fa0012ff07000004e00014
:1020d00012003200a180800090808000808f50002c
:1020e00006003600a080800080007800908080008c
:1020f000008050000000e900090037009080800057
:1021000080007800a080800000805000800078006f
:102110008000200001005000010037000000eb00ab
:102120000080fa00000006000000fa0021e2a8008a
:102130002342a800000000000080fa000000060012
:102140000000fa0021e2a9002342a90000000000db
:102150000080fa00000006000000fa0001e2a90079
:10216000000000000080fa00000006000000fa00f5
:102170002228a9002208a900000000000080fa001f
:10218000000006000000fa00104180000000d100ad
:10219000614060000004e00005003a00104180004a
:1021a00000407800614060000004e000020032005e
:1021b00010002000010037000000eb000040780014
:1021c000614060000080fa00000006000000fa0094
:1021d0002228a9002208a900000000000080fa00bf
:1021e000000006000000fa000228a9000208a90069
:1021f000000000000080fa00000006000000fa0065
:102200000228a8000208a800000000000080fa00d0
:10221000000006000200fa00000f78001040800065
:102220000000d100614060000004e00013003a00ab
:102230001040800000407800614060000004e00031
:102240000e003a00104080000000d10061406000a4
:102250000004e00009003a001040800000407800cf
:10226000614060000004e00004003a0020b4210056
:102270000100200018fa0700f2ff370000000000fc
:102280000080fa00000006000000fa000010800044
:102290004f00de00004078000004e00007003a0034
:1022a0000422ef000000280000108800b015200074
:1022b0005010880010c0b300010037000040eb0050
:1022c0000080fa00000006000000fa000010800004
:1022d0004f00de00004078000004e00006003a00f5
:1022e0000222a8000202a80000c2a80001e2a80081
:1022f00010c0b300010037000040eb000080fa007e
:10230000000006000000fa00000000000080fa0053
:10231000000006000000fa000002a8000000000013
:102320000080fa00000006000000fa000022a80069
:10233000000000000080fa00000006000000fa0023
:102340000042a800000000000080fa000000060023
:102350000000fa00201080004f00de0000407800ee
:102360000080fb0000f0a7000000ea000000ea0087
:102370004f00de00004078000080fa0000000600f8
:102380000000fa000062a800000000000080fa00cf
:10239000000006000000fa00701080000040780085
:1023a0000080fa00000006000200fa00004f7800ea
:1023b0001e80fb0060108800000000000080fa0012
:1023c000000006000000fa0000a2a9000082a80098
:1023d000000000000080fa00000006000000fa0083
:1023e00000a2a8000082a800000000000080fa00ff
:1023f000000006000000fa000182a80000000000b2
:102400000080fa00000006000000fa0020108000a2
:102410000000d100614060000004e00005003a00c7
:102420002010800000407800614060000004e0005f
:102430000200320010002000010037000000eb0015
:1024400000407800614060000080fa000000060053
:102450000000fa00201080004300de0061406000b0
:102460000080fb0000f0a7000000ea000000ea0086
:102470004f00de00004078000080fa0000000600f7
:102480000000fa00201080004500de00614060007e
:10249000614068000080fa00000006000000fa00b9
:1024a000201080004400de00614060000080fb00de
:1024b00000f0a7000000ea000000ea004f00de0084
:1024c000004078000080fa00000006000000fa00da
:1024d000201080004500de00614060000080fb00ad
:1024e00000f0a7000000ea000000ea004f00de0054
:1024f000004078000080fa00000006000000fa00aa
:10250000201080004200de00614060000080fb007f
:1025100000f0a7000000ea000000ea004f00de0023
:10252000004078000080fa00000006000000fa0079
:102530000542a900000000000080fa00000006002b
:102540000000fa0002a2a800000000000080fa00cb
:10255000000006000000fa0002a2a900000000002e
:102560000080fa00000006000000fa0002c2a80085
:10257000000000000080fa00000006000000fa00e1
:1025800002c2a900000000000080fa00000006005e
:102590000200fa00000f78009e0078004181880058
:1025a000000000000080fa00000006000200fa00af
:1025b000000f78009e007800518188000000000024
:1025c0000080fa00000006000200fa00000f780008
:1025d0009e00780061818800000000000080fa0001
:1025e000000006000200fa00004f780010c0b3009f
:1025f000580007000000e000020032001000200038
:102600000b003700800921001100200032f907007b
:1026100000c8b3009e40780080cf500002003a000e
:1026200010002000020037001e407800490007001b
:102630000080fa00000006000600fa00200798005b
:10264000650207000000e0000200320010002000d8
:102650003e003700c0c7b3007c0207000000e00066
:10266000020032001000200038003700be020700d0
:10267000e24f500002003a00100020003300370003
:102680002e00900033f907002047980010c0b300d7
:10269000104798002800370000ccb300004f7800a6
:1026a0009e4090002e40900080cf500002003a00e3
:1026b00000c4b300004f78001e407800630207009a
:1026c0000000e00002003200100020001f00370070
:1026d000a5020700e24f500002003a00100020005f
:1026e0001a003700ae009000640047000108e800bf
:1026f000100178002207980011407800004f780000
:102700001e407800510207000000e0000200320085
:10271000100020000d00370093020700e24f500028
:1027200002003a0010002000080037001e40900010
:102730000040e800104798009e4090002e40900016
:1027400080cf5000d4ff3400330207000080fa002d
:10275000000006000200fa00004f78001e02070089
:102760000000e000020032001000200022003700cc
:10277000c0c7b300350207000000e00002003200cd
:10278000100020001c00370077020700e24f5000c5
:1027900002003a0010002000170037000040eb0054
:1027a0002a0207000000e0000200320010002000b2
:1027b000110037006c020700e24f500002003a009f
:1027c000100020000c0037001e4078001f02070098
:1027d0000000e00002003200100020000600370078
:1027e00061020700e24f500002003a001000200092
:1027f00001003700080207000080fa000000060010
:102800000200fa00004f7800b07d2900a1022000ec
:10281000b1f8070080c3b300ceff07000000e0005e
:10282000020032001000200051003700d08220004a
:1028300001002000a8f8070090c3b300c5ff0700ff
:102840000000e000020032001000200048003700c5
:10285000d0822000010020009ff8070040c1b30093
:10286000bcff07000000e000020032001000200062
:102870003f003700d08220000100200096f80700ba
:102880001e4078006f4060000047b000b1ff0700b5
:102890000000e00002003200100020003400370089
:1028a000d0822000010020008bf807001e80fb0072
:1028b0004400de00004078004045b000a5ff07005e
:1028c0000000e00002003200100020002800370065
:1028d000d0822000010020007ff80700c0c6b300ae
:1028e0009cff07000000e000020032001000200002
:1028f0001f00370090742f00410d200076f807006c
:1029000080c3b30093ff07000000e0000200320024
:102910001000200016003700d082200001002000a7
:102920006df80700c0c0b3008aff07000000e00098
:1029300002003200100020000d003700d08220007d
:102940000100200064f8070010c0b30081ff0700f9
:102950000000e000020032001000200004003700f8
:1029600010132200210020005bf807000000eb009c
:102970000080fa00000006000400fa00000f780052
:10298000214798009e00780021818800ae40900089
:1029900062022100014978002270ef0050c6b300a6
:1029a00020f0b700000000000080fa0000000600e0
:1029b0000000fa0022d0bf000080fa0000000600ec
:1029c0000000fa002270ef00000000000080fa0012
:1029d000000006000a00fa006047980041079800ce
:1029e0000040eb0010479800ce00900011079800bf
:1029f00050cab3007dfc0700a0c5b3007bfc0700f4
:102a000000c8b30079fc07006e40900077fc070017
:102a10000040eb00004f7800100037009e0090004f
:102a20000e80e8000108e800100178001207980005
:102a300011417800424798009e4090004e4090001f
:102a400000c06800104798004e40900067fc0700e7
:102a50001e4078000040e800004f78006e40900073
:102a60009e40780080cf5000ecff39001e4090005f
:102a70005efc0700000000000080fa000000060075
:102a80000200fa00101180000000d10061406000d7
:102a9000e14f500002003a002222a9008f003700c7
:102aa00030118000004f780020d0bf000080fb0074
:102ab00071062000810f50002500320071062000b1
:102ac000810f500007003c0051062000810f50008c
:102ad0000e00320061062000810f5000120032000b
:102ae0006000370091062000810f50003200320054
:102af00091062000810f50001f003500a106200024
:102b0000810f5000360032005600370050cab30023
:102b10009e40780080cf50006d003a0060c6b30040
:102b200020f0b7006d003700a0c5b3009e407800cc
:102b300080cf500003003a0070c6b30020f0b70009
:102b40006600370050c6b30020f0b70063003700be
:102b500000c8b3009e40780080cf500003003a00c8
:102b600080c6b30020f0b7005c00370050c6b30049
:102b700020f0b700590037001e4078000004e00044
:102b80000a00320000c5b3009e40780080cf50009c
:102b900006003e001e4178001102210082487800a4
:102ba0002370ef002070ef004c00370050c6b300d8
:102bb00020f0b7004900370023d0bf009e407800c6
:102bc00080cf500003003a00a0c6b30020f0b70049
:102bd0004200370050c6b30020f0b7003f00370076
:102be0001e407800e44f50001b003a001102210003
:102bf0009140780026d0bf0080cf50000200360000
:102c000026d0bf0021f0b7000040eb00004f780055
:102c10000b0037009e80fb00228180001e80fb009d
:102c200000004100621a21008100410091407800bb
:102c3000014878001e4078000040e800004f78000e
:102c400021d0bf009e40780080cf5000f1ff3900b6
:102c500021d0bf0022f0b70050c6b30020f0b7006b
:102c60001e00370031022100914078001e4078009c
:102c700000c0680023f0b7000102210091407800f5
:102c8000f0c2b30080cf500005003e0020d0bf004e
:102c90000080fb00611a2100008040001e4878007f
:102ca00020d0bf000040e80020f0b7000102210062
:102cb0009140780021d0bf0080cf5000060039003d
:102cc00090c6b30020f0b7000000000002003700fb
:102cd0000000000001003700000000000080fa0042
:102ce000000006000000fa00008820001013880091
:102cf0001000200020138800c00028000013880066
:102d0000000000000080fa00000006000400fa0045
:102d1000000f7800110798000000000000138000e9
:102d20000000d10061406000e14f5000fbff320025
:102d30001e007800104078000080fb0040138800df
:102d400000000000001380004500de0061406000cc
:102d5000e14f5000fbff32004013800080407800bc
:102d60001e00900001487800000000000080fa007a
:102d7000000006001800fa00100f9800210f9800bc
:102d8000320f98000000eb00000f78000000eb000d
:102d9000100798000000eb00700798000000eb009f
:102da000000f980010002000600798001e08900097
:102db0000000e00007003a000000eb005007980018
:102dc00064004700700847009000780021079800d1
:102dd00004003700ee019000530798009e08900011
:102de000210798003e0890000000e00007003a002c
:102df0000000eb0040079800660047006e0847009f
:102e0000900178003307980004003700ee0090002e
:102e100041079800be0990003307980000000000a9
:102e2000001380000000d10061406000e14f5000bd
:102e3000fbff320026003700001380000000d100a5
:102e400061406000e14f50000c0032002e00900005
:102e5000104078000080fb004013880064004700a9
:102e600064014700ea0047009201780011884100a0
:102e700090007800210798001e0fe80000138000e2
:102e80004500de00614060000004e00010003a00f0
:102e900040138000804078003e0090000148780098
:102ea0006600470066014700e8004700920178008d
:102eb0001188410090007800310798000e80e800ea
:102ec0008e80e8001108e800900178001307980050
:102ed0002e0890009e007800808f5000d6ff3900a9
:102ee00015003700001380004500de0061406000df
:102ef0000004e00010003a00401380008040780099
:102f00003e009000014878006600470066014700d7
:102f1000e800470092017800118841009000780095
:102f2000310798000e80e8008e80e8001108e80064
:102f300090017800130798009e0090002e089000e2
:102f4000808f5000e7ff39001e0078000080fa00f3
:102f5000000006000400fa00204798000e80e800f8
:102f60008e00780069ff07001e4078000080fa009c
:102f7000000006000600fa00000f78001107980014
:102f8000220798002e0190009e0090001e007800fd
:102f900078ff07000080fa00000006000000fa0039
:102fa000101380004a00de00614060000004e00071
:102fb00002003a000000eb00010037001000200082
:102fc0000080fa00000006000000fa0000138000f4
:102fd0000080fa00000006000000fa0014aea9000c
:102fe00018aea80014cea90018cea800b008200082
:102ff00001002000b8f6070018aea900b0082000b4
:1030000001002000b4f6070018cea9000000eb0074
:103010000080fa00000006000000fa0014aea900cb
:1030200018aea90014cea90018cea800b008200040
:1030300001002000a8f6070014aea80014cea800d6
:103040000000eb000080fa00000006000400fa0017
:103050002047980014aea90014cea900ae409000fd
:10306000014f780080c0b30010479800140037006b
:103070001e4078000004e00002003d0018aea800e9
:103080000100370018aea9001e4078000040400043
:10309000004f780018cea800701120000100200019
:1030a0008df6070018cea900100d200001002000a9
:1030b00089f607001e4090000040e9001047980084
:1030c0001e4090000004e000e9ff3a0014aea800a2
:1030d0000000eb000080fa00000006000200fa0089
:1030e00014aea80014cea90080c0b3001047980009
:1030f00017003700500420000100200076f607007a
:1031000018cea8001e40780000404000004f780014
:10311000b07080004500de00614060000004e00007
:10312000040032001e4078000004a000004f780028
:10313000030037001e4078000004a100004f780013
:1031400018cea9001e4090000040e90010479800ea
:103150001e4090000004e000e6ff3a001e407800a8
:103160000080fa00000006000200fa0014aea80079
:1031700014cea90018cea8005004200001002000a1
:1031800055f60700b07080004500de006140600029
:10319000004f780018cea9001e4078000080fa0089
:1031a000000006000000fa0014aea90018aea90045
:1031b00014cea900500420000100200046f60700ac
:1031c00018cea800b00820000100200042f6070039
:1031d00018cea90014aea8000000eb000080fa0091
:1031e000000006000000fa0014aea90018aea80006
:1031f00014cea90018cea800500420000100200021
:1032000035f6070018cea900500420000100200068
:1032100031f6070014aea8000000eb000080fa00b1
:10322000000006000000fa00500020001060880036
:1032300004acef00062cef000a2cef001a2cef0074
:103240001e2cef00202cef00402cef000008200087
:10325000006388000001eb0010322400d1bc2a007a
:1032600023c22000f1608800f060880082097800a5
:103270000001eb0010322400d1bc2a0023c420003e
:10328000f1608800f0608800820978000000240066
:1032900011322400d2bc2a00f2608800f16088005c
:1032a00010638800800f200011322400d2bc2a0055
:1032b000f2608800f160880020618800800f2000a3
:1032c00011322400d2bc2a00f2608800f16088002c
:1032d000206288003004200011322400d2bc2a0071
:1032e000f2608800f160880020638800262cef00df
:1032f000462cef00662cef00282cef00482cef0046
:10330000682cef002a2cef004a2cef006a2cef000b
:103310002c2cef004c2cef006c2cef00322cef002b
:10332000522cef00722cef00342cef00542cef00e5
:10333000742cef00382cef00582cef00782cef00a5
:103340003a2cef005a2cef007a2cef003c2cef00c7
:103350005c2cef007c2cef003e2cef005e2cef008d
:103360007e2cef00000028000060880000000000b4
:103370000080fa00000006000000fa0000000000d3
:103380000080fa00000006000000fa0030408000d3
:103390004900de00614060000004e00002003200ed
:1033a000f5ff07000728a900000000000080fa00d0
:1033b000000006000000fa00000000000080fa0093
:1033c000000006000000fa00304080004900de00e6
:1033d000614060000004e00002003200f5ff0700d9
:1033e0000bc8a900000000000080fa0000000600e1
:1033f0000000fa00000000000080fa000000060053
:103400000000fa00304080004900de0061406000aa
:103410000004e00002003200f5ff07000be8a900fd
:10342000000000000080fa00000006000000fa0022
:10343000000000000080fa00000006000000fa0012
:10344000304080004900de00614060000004e00080
:1034500002003200f5ff07000c08a9000000000080
:103460000080fa00000006000000fa00003a800028
:103470000080fa00000006000200fa00faff0700d0
:10348000000f78001e007800250007000004e0000f
:103490000200320000002800720007001e007800c1
:1034a0002b0007000004e0000200320000002400ae
:1034b0006c0007001e007800330007000004e000e5
:1034c0000200320000202000660007001e00780085
:1034d0003b0007000004e00002003200000820006a
:1034e000600007001e007800430007000004e000b1
:1034f00002003200000420005a0007001e0078007d
:103500004b0007000004e000020032000001200030
:1035100054000700000000000080fa0000000600d0
:103520000400fa00100798000040eb00004f7800fc
:103530001e0090000000e00002003d0010c0b3003b
:10354000004f78001e4078000080fa00000006005e
:103550000400fa00100798000040eb00004f7800cc
:103560009e00900000002400008060000000e00049
:103570000200320010c0b300004f78001e407800f7
:103580000080fa00000006000400fa00100798000e
:103590000040eb00004f78009e00900000202000cb
:1035a000008060000000e0000200320010c0b300a4
:1035b000004f78001e4078000080fa0000000600ee
:1035c0000400fa00100798000040eb00004f78005c
:1035d0009e00900000082000008060000000e000d5
:1035e0000200320010c0b300004f78001e40780087
:1035f0000080fa00000006000400fa00100798009e
:103600000040eb00004f78009e0090000004200076
:10361000008060000000e0000200320010c0b30033
:10362000004f78001e4078000080fa00000006007d
:103630000400fa00100798000040eb00004f7800eb
:103640001e009000700060000000e00002003200e8
:1036500010c0b300004f78001e4078000080fa00d0
:10366000000006000200fa00000f78001e0078003b
:103670008080ea00003a800000806000003a880004
:10368000000000000080fa00000006000000fa00c0
:103690004027ef00000000000080fa000000060054
:1036a0000000fa000a21ef000002200070088800e4
:1036b0000621ef000c21ef00800028008008880020
:1036c000908180000000e00002003a00a0bf2100cd
:1036d0004c0007000108a9002108a8008020210053
:1036e0008040eb0001487800000000000080fa00f4
:1036f000000006000400fa00008fbe001e007800e3
:10370000600888001e0078009e0090004008de00df
:103710000100200000007800700888000000000010
:103720000080fa00000006000400fa00f0ff2f00fd
:10373000f1ff2f00008fbe00700880008000eb00ba
:10374000c001dd0002002000600880008000eb0066
:103750000000710081807100008fbe001e007800a3
:103760009e0090000080fa00000006000400fa00ad
:10377000008fbe001e0078009e0090004008de0012
:103780000100200000007800400888001e0078003a
:1037900030088800000000000080fa0000000600e9
:1037a0000800fa00f0ff2f00f1ff2f00008fbe008d
:1037b00031088000210798004108800031079800f7
:1037c0003e0090008000eb00c001dd000200200000
:1037d0002e0090008000eb000000710081807100dd
:1037e000008fbe001e0078009e0090000080fa004e
:1037f000000006000000fa00000000000080fa004f
:10380000000006000200fa00000f78002108a9005d
:103810009e007800918188002108a8000000000027
:103820000080fa00000006000000fa00802021005d
:103830008040eb00014878002108a80011e1a800b1
:10384000000000000080fa00000006000000fa00fe
:1038500011e1a9002108a900000000000080fa0081
:10386000000006000200fa0080202100104f7800be
:103870001e4078000004e000030032008020210098
:103880008040eb00014878001e4078000080fa007c
:10389000000006000000fa00802021001040900087
:1038a0000080fb000080fa00000006000000fa0023
:1038b000802021008040eb001140980000000000b3
:0838c0000080fa000000060080
:020000040000fa
:1038c800d611000020000000800000002e1000002b
:1038d8000200000082000000ffff0000301000001e
:1038e8000200000080000000081200000200000032
:1038f800800000003210000002000000800000007c
:10390800341000000200000080000000f6110000e2
:103918001200000080000000121000000e000000dd
:103928008000000028100000060000008000000051
:103938000a1200000200000080000000361000009b
:103948000200000080000000a61100003000000006
:103958008000000020100000080000008000000027
:103968003810000006010000820000000a000b0069
:10397800000c00000d000f000010000012001300e2
:103988000015000018001a00001d00001f00230089
:10399800002600002a002e000033000038003d00f9
:1039a800004300004a005100005a000062006c0009
:1039b8000077000083009000009f0000ae00c00068
:1039c80000d300000b014300017b0100b301eb00b1
:1039d800012202005a02920002ca020002033a00bf
:1039e80003720300aa03e200031a040052048900c8
:1039f80004c10400f904310005690500a105d900d6
:103a0800051106004906810006b80600f0062800e0
:103a1800076007009807d00007080900410a7a00e4
:103a28000bb20c00ea0d23000f5c10009411cc00bf
:103a3800120514003e15760016ae1700e718200090
:103a48001a581b00901cc9001d021f003a20720062
:103a580021ab2200e4231c00255426008d27c60034
:103a680028fe2900362b6f002ca82d00e02e180008
:103a7800305131008a32c20033fa340033366c00d8
:103a880037a43800dc3915003b4e3c00863dbe00ab
:103a98003ef73f003041680042a04300d94412007d
:103aa800464a47008248bb0049f44a002c4c64004f
:103ab8004d9d4e00d64f0e00514652007f53b80020
:103ac80054b8540082022e00900000003e110000fd
:103ad80068000000800000000010000012000000d4
:083ae800800000000000000056
:020000040000fa
:103af0000000fa000081200000588800022bef002f
:103b0000062bef0000002100205888000a2bef0050
:103b1000082bef000c2bef000e2bef000088a90004
:103b20000080200080588800d00020009058880035
:103b3000162bef0000002100a05888001a2bef0080
:103b4000182bef001c2bef001e2bef0001c8a90063
:103b5000202bef00222bef00262bef00000021008e
:103b6000205988002a2bef00282bef002c2bef0088
:103b70002e2bef000308a900302bef00322bef00b3
:103b8000362bef0000002100a05988003a2bef00ef
:103b9000382bef003c2bef003e2bef000488a900f0
:103ba00011eba800000000000080fa0000000600f1
:103bb0000000fa00000000000080fa00000006008b
:103bc0000000fa00004080004400de006140600018
:103bd0000004e00002003200f5ff07000088a900a1
:103be000000000000080fa00000006000000fa005b
:103bf000000000000080fa00000006000000fa004b
:103c0000004080004e00de00614060000004e000e3
:103c100002003200f5ff070001c8a9000000000003
:103c20000080fa00000006000000fa00000000001a
:103c30000080fa00000006000000fa00104080003a
:103c40004800de00614060000004e0000200320035
:103c5000f5ff07000308a900000000000080fa003b
:103c6000000006000000fa00000000000080fa00da
:103c7000000006000000fa00204080004400de0042
:103c8000614060000004e00002003200f5ff070020
:103c90000488a900000000000080fa00000006006f
:103ca0000000fa000021ef00604f2d00100888008e
:103cb0000003280020088800b08180000000e00098
:103cc00002003a00e0ea2100280007000068a9008d
:103cd0002068a800a02021008040eb000148780067
:103ce000000000000080fa00000006000200fa0058
:103cf000000f78009e00780011088800a0202100a5
:103d00008040eb0001487800000000000080fa00cd
:103d1000000006000000fa00100880000080fa0091
:103d2000000006000200fa00000f78009e007800f4
:103d300001088800a02021008040eb0001487800a5
:103d4000000000000080fa00000006000000fa00f9
:103d5000000880000080fa00000006000000fa0061
:103d6000000000000080fa00000006000200fa00d7
:103d7000000f78002068a9009e007800b1818800bb
:103d80002068a800000000000080fa000000060083
:103d90000000fa00a02021008040eb0001487800dc
:103da0002068a80005e1a800000000000080fa00db
:103db000000006000000fa0005e1a9002068a90043
:103dc000000000000080fa00000006000200fa0077
:103dd000a0202100104f78001e4078000004e00071
:103de00003003200a02021008040eb000148780051
:103df0001e4078000080fa00000006000000fa0073
:103e0000a0202100104090000080fb000080fa00fc
:103e1000000006000000fa00a02021008040eb0016
:103e200011409800000000000080fa000000060029
:103e30000000fa00042eef0000702000c07088001f
:103e40007001200000708800b06f2100a070880011
:103e50000c2eef00202eef000a2eef000040200075
:103e6000f0708800062eef001a2eef0030012000bf
:103e7000707088008000200010718800103a800067
:103e800000407800004178000264a10060c4b300e3
:103e900071c5b300237420008049780081497800ff
:103ea0008249780070c2b300c4e6b700b133800025
:103eb00000fc2f00008060000000a000b0338800ec
:103ec000103a800000407800004178000264a000b1
:103ed00060c4b30071c5b30023742000804978002a
:103ee00081497800824978001d2ea80040f8210001
:103ef000090007000268a9002268a800000000006d
:103f00000080fa00000006000000fa000000000037
:103f10000080fa00000006000200fa00000f78009e
:103f20002268a9009e007800818188002268a8008c
:103f3000000000000080fa00000006000200fa0005
:103f4000000f78001e007800f3ff0700000000005b
:103f50000080fa00000006000000fa00404e280031
:103f6000001988000040200010198800f0ff21008f
:103f7000201988002823ef00001020007019880005
:103f80003023ef0000102000901988002623ef0056
:103f900020fd210007000700000000000080fa005b
:103fa000000006000000fa00000000000080fa0097
:103fb000000006000200fa00000f78001e007800e2
:103fc000a0818800000000000080fa0000000600c8
:103fd0000000fa00004080004d00de0061406000fb
:103fe0000004e00006003200a08180000000e00034
:103ff00002003200a08180000000010001a8a90099
:10400000000000000080fa00000006000000fa0036
:1040100000202300203a88004827ef004e27ef00b9
:10402000d0122000303a88006027ef006227ef00ae
:104030006427ef006627ef006a27ef006c27ef0088
:104040006e27ef0012c0b30080c7b300a1c9b30050
:1040500033742000804978008149780082497800d3
:1040600012c0b30060c4b30071c5b3002374200054
:10407000804978008149780082497800000000007a
:10408000103a800000407800614060000004e000c9
:10409000fbff3a0000000000103a80004500de00ff
:1040a00061406000e14f5000fbff3a00000000005b
:1040b0000080fa00000006000000fa004042800084
:1040c00000c0a00000d0a00000e0a0004042880096
:1040d000004380000040a0000050a1000060a1004b
:1040e00000438800304280000000a0000010a100c2
:1040f0000020a100304288002042800000c0a000c3
:1041000000d0a10000e0a100204288001042800001
:1041100000c0a00000d0a10000e0a1001042880073
:10412000204280000000a0000010a1000020a1009b
:10413000204288000042800000c0a00000d0a10002
:1041400000e0a10000428800000000000080fa00aa
:10415000000006000a00fa002007980031079800c6
:10416000420798002e0090000080ea002007980087
:104170000000eb00000f7800140037001e007800ec
:10418000e600470011004000904078002147980069
:104190002e0090004800de008e80e8009180fb0039
:1041a0002e01900002816800f10f20008100610063
:1041b00001814000015e28008100410091007800eb
:1041c00001006800200798001e0fe8004e009000d4
:1041d0009e007800808f5000e8ff35002e00900090
:1041e0000080ea000080fa00000006000200fa00e9
:1041f000000f780021028000200f200080806000e6
:104200001e007800010070002002880000000000fd
:104210000080fa00000006000000fa00c3e8a800d1
:104220000000000000000000000000000080fa0014
:10423000000006000000fa00fdfe07009eff0700d8
:1042400072ff070016f6070043ff0700f5fb0700a3
:1042500013fd070092fe070025fe0700eeff070092
:1042600000022000e1ff0700000000000080fa00cb
:10427000000006000000fa0064ff070000000000d4
:104280000080fa00000006000000fa00003a8000fa
:104290000080fa00000006000000fa0076fc07002b
:1042a000000000000080fa00000006000000fa0094
:1042b000f6fc0700000000000080fa000000060085
:1042c000000f78009e00780071818800ffff3700a2
:1042d0000000fa00601d210080077800e01e210028
:1042e00000018800000000000080fa0000000600c5
:020000040000fa
:020000040005f5
:04570000ffffff00a8
:020000040000fa
:020000040005f5
:04572000ffff000087
:020000040000fa
:020000040005f5
:04573000f8ff00007e
:020000040000fa
:020000040005f5
:045738007bff0000f3
:020000040000fa
:020000040005f5
:04574000f8ff00006e
:020000040000fa
:020000040005f5
:04574800ffff00005f
:020000040000fa
:020000040005f5
:04575000fdff000059
:020000040000fa
:020000040005f5
:04575800000000004d
:020000040000fa
:020000040005f5
:045760000000000045
:020000040000fa
:020000040005f5
:04576800000000003d
:020000040000fa
:020000040005f5
:045770000000000035
:020000040000fa
:020000040005f5
:04577800feff000030
:020000040000fa
:020000040005f5
:04578000ffff000027
:020000040000fa
:020000040005f5
:04578800ffff00001f
:00000001FF
